:100000000C9462000C948A000C948A000C948A0070
:100010000C948A000C948A000C948A000C948A0038
:100020000C948A000C948A000C948A000C948A0028
:100030000C948A000C948A000C948A000C948A0018
:100040000C949A050C948A000C9468050C94420553
:100050000C948A000C948A000C948A000C948A00F8
:100060000C948A000C948A000000000024002700F1
:100070002A0000000000250028002B0000000008D6
:10008000000201000003040700000000000000005F
:1000900000000000230026002900040404040404D6
:1000A0000404020202020202030303030303010227
:1000B00004081020408001020408102001020408F6
:1000C0001020E40511241FBECFEFD8E0DEBFCDBF66
:1000D00011E0A0E0B1E0E6E0F4E102C005900D928D
:1000E000A833B107D9F721E0A8E3B1E001C01D9220
:1000F000A13FB207E1F710E0C2E6D0E004C02197CB
:10010000FE010E94FB09C136D107C9F70E943106E2
:100110000C94010A0C940000CF92DF92EF92FF92B0
:10012000CF93DF93B091E501A0E08111AB2F8091D7
:10013000E60190E0880F991FAC0140575F4FC090D7
:10014000EB01D090EC01E090ED01F090EE0130E099
:1001500020E0FA01C591D491E881B90190E080E0F6
:10016000EB23EA130AC02F5F3F4F6C157D058E0508
:100170009F0578F36FEF7FEFCB01DF91CF91FF9079
:10018000EF90DF90CF900895AF92BF92CF92DF9221
:10019000EF92FF920F931F93CF93DF936C017B013C
:1001A0008B01040F151FEB015E01AE18BF08C017CD
:1001B000D10759F06991D601ED91FC910190F08140
:1001C000E02DC6010995892B79F7C501DF91CF9103
:1001D0001F910F91FF90EF90DF90CF90BF90AF9065
:1001E0000895FC01538D448D252F30E0842F90E03D
:1001F000821B930B541710F0CF9608950197089522
:10020000FC01918D828D981761F0A28DAE0FBF2FEA
:10021000B11D5D968C91928D9F5F9F73928F90E040
:1002200008958FEF9FEF0895FC01918D828D9817AF
:1002300031F0828DE80FF11D858D90E008958FEFEC
:100240009FEF0895FC01918D228D892F90E0805CB5
:100250009F4F821B91098F739927089581E491E044
:100260000E94220121E0892B09F420E0822F0895C9
:1002700080E090E0892B29F00E942E0181110C94DE
:1002800000000895FC01A48DA80FB92FB11DA35A39
:10029000BF4F2C91848D90E001968F739927848FA6
:1002A000A689B7892C93A089B1898C9183708064C9
:1002B0008C93938D848D981306C00288F389E02D6A
:1002C00080818F7D80830895EF92FF920F931F931B
:1002D000CF93DF93EC0181E0888F9B8D8C8D9813F9
:1002E0001AC0E889F989808185FF15C09FB7F89405
:1002F000EE89FF896083E889F98980818370806451
:1003000080839FBF81E090E0DF91CF911F910F919B
:10031000FF90EF900895F62E0B8D10E00F5F1F4FAA
:100320000F731127E02E8C8D8E110CC00FB607FCB9
:10033000FACFE889F989808185FFF5CFCE010E9447
:100340004201F1CFEB8DEC0FFD2FF11DE35AFF4F72
:10035000F0829FB7F8940B8FEA89FB8980818062D5
:10036000CFCFCF93DF93EC01888D8823B9F0AA8992
:10037000BB89E889F9898C9185FD03C0808186FD60
:100380000DC00FB607FCF7CF8C9185FFF2CF8081AF
:1003900085FFEDCFCE010E944201E9CFDF91CF91E1
:1003A000089590E0FC01E458FF4F2491FC01E255D0
:1003B000FF4F3491FC01E656FF4FE491EE23C9F064
:1003C000222339F0233001F1A8F4213019F1223031
:1003D00029F1F0E0EE0FFF1FEE58FF4FA591B49109
:1003E0008FB7F894EC91611126C030953E233C9371
:1003F0008FBF08952730A9F02830C9F0243049F77D
:10040000809180008F7D03C0809180008F778093E2
:100410008000DFCF84B58F7784BDDBCF84B58F7D3F
:10042000FBCF8091B0008F778093B000D2CF8091C6
:10043000B0008F7DF9CF3E2BDACFCF93DF9390E0E2
:10044000FC01E255FF4F249186569F4FFC01849199
:100450008823D1F090E0880F991FFC01E859FF4FE5
:10046000A591B491FC01EE58FF4FC591D491623033
:1004700071F49FB7F8943C91822F809583238C93DD
:10048000E8812E2B28839FBFDF91CF9108958FB7EE
:10049000F894EC912E2B2C938FBFF6CF1F93CF9314
:1004A000DF93182FEB0161E00E941D02209739F4C1
:1004B00060E0812FDF91CF911F910C94D101CF3F4C
:1004C000D10511F461E0F5CFE12FF0E0E458FF4FE2
:1004D000E491E33031F140F4E130B1F0E230E1F0A9
:1004E000C038D1057CF7E4CFE73029F1E83059F185
:1004F000E430B1F780918000806280938000D093D7
:100500008B00C0938A0004C084B5806884BDC7BDD9
:10051000DF91CF911F91089584B5806284BDC8BDDD
:10052000F7CF80918000806880938000D09389000D
:10053000C0938800EDCF8091B00080688093B000B8
:10054000C093B300E5CF8091B00080628093B0008B
:10055000C093B400DDCF3FB7F894809139019091FA
:100560003A01A0913B01B0913C0126B5A89B05C082
:100570002F3F19F00196A11DB11D3FBFBA2FA92F22
:10058000982F8827BC01CD01620F711D811D911D1F
:1005900042E0660F771F881F991F4A95D1F708958B
:1005A0008F929F92AF92BF92CF92DF92EF92FF9283
:1005B0004B015C010E94AB026B017C010E94AB020B
:1005C0006C197D098E099F09683E7340810591056C
:1005D000A8F321E0821A9108A108B10888EEC80E9C
:1005E00083E0D81EE11CF11C81149104A104B10424
:1005F00029F7FF90EF90DF90CF90BF90AF909F9042
:100600008F900895CF92DF92EF92FF920F931F93F6
:10061000CF93DF93CDB7DEB7C054D1400FB6F89477
:10062000DEBF0FBECDBF2FB7F89480913D019091F2
:100630003E01A0913F01B09140012FBF4091E701E1
:100640005091E8016091E9017091EA018C019D01EE
:10065000041B150B260B370BB901A801403D574071
:100660006105710590F48091EF01C05CDE4F0FB61B
:10067000F894DEBF0FBECDBFDF91CF911F910F91D8
:10068000FF90EF90DF90CF9008958093E7019093D3
:10069000E801A093E901B093EA011092E2011092FF
:1006A000E1011092E0011092DF011092DE0162E0A0
:1006B0008091E3010E941D0261E070E080E090E023
:1006C0000E94D00261E08091E3010E941D0260E07F
:1006D0008091E3010E94D1018091E4018551823033
:1006E00020F58BE291E10197F1F762E08091E3015F
:1006F0000E941D028091F00190E08230910538F057
:10070000880F991F880F991F05970197F1F7F894A3
:1007100080E00E948C006F3F7F4F8F4F9F4F61F4AE
:100720001092EF01789480E0A0CF64E170E080E067
:1007300090E00E94D002D9CF81E00E948C006F3FF0
:100740007F4F8F4F9F4F61F38E010F5F1F4F6E01E1
:100750008FEBC81A8EEFD80A780180E00E948C00D7
:10076000F701608371838283938381E00E948C0010
:10077000F7016483758386839783F8E0EF0EF11C9D
:10078000EC14FD0451F7789430E020E0F801C080CB
:10079000D180E280F3804481558166817781FFEFCB
:1007A000CF16DF06EF06FF0631F04F3F8FEF5807F9
:1007B0006807780719F41092EF01B5CFF90183E0CB
:1007C000F595E7958A95E1F7E252FE4F8081880F13
:1007D000C416D506E606F70610F180832F5F3F4F5B
:1007E000085F1F4F2832310589F64091E2012091C0
:1007F000DE018091DF01280F3327331F8091E00154
:10080000280F311D8091E101820F932F911D9927AF
:100810004817190681F681E08093EF0126CF8160A9
:10082000DCCF0F931F93CF93DF938B01EA01BC01C1
:1008300087E00E944E02B80186E00E944E02BE018F
:1008400085E0DF91CF911F910F910C944E02FC0136
:1008500001900020E9F73197AF01481B590BBC010B
:1008600081E491E00C94C4008F929F92AF92BF926A
:100870000F931F93CF93DF93CDB7DEB7A1970FB63A
:10088000F894DEBF0FBECDBF19A2423008F44AE093
:100890008E010F5D1F4F842E912CB12CA12CA50130
:1008A00094010E94D909E62FB901CA01EA30F4F493
:1008B000E05DD801EE938D01232B242B252B79F7B6
:1008C00090E080E0109719F0CD010E942704A196D6
:1008D0000FB6F894DEBF0FBECDBFDF91CF911F9151
:1008E0000F91BF90AF909F908F900895E95CE1CFFA
:1008F0004F925F926F927F928F929F92AF92BF9230
:10090000CF92DF92EF92FF926B017C01AC019B01D1
:100910000E94D4098823C1F082E191E00E9427045B
:100920007C018EE191E00E9427048E0D9F1DFF90B7
:10093000EF90DF90CF90BF90AF909F908F907F907F
:100940006F905F904F90089546015701E894B7F873
:100950002FEF3FEF4FE75FE7C501B4010E94D409D5
:1009600081110DC02FEF3FEF4FE75FE7C501B401E5
:100970000E947C0818161CF486E191E0CFCF2FEF7F
:100980003FEF4FE75FE4C701B6010E946209181606
:100990001CF48AE191E0C2CF2FEF3FEF4FE75FEC0D
:1009A000C701B6010E947C0887FDF3CF20E030E04C
:1009B000A901C701B6010E947C08B12CA12C87FFB8
:1009C0000AC06DE281E491E00E9464015C01F7FAE3
:1009D000F094F7F8F0942AE037ED43EA5BE3C701BF
:1009E000B6010E9410082B013C010E9481086B0196
:1009F0007C010E94B0089B01AC01C301B2010E94BE
:100A00000F082B013C014AE0C701B6010E943404E3
:100A10007C01EA0CFB1C6EE281E491E00E9464011F
:100A2000E80EF91E20E030E040E251E4C301B201DB
:100A30000E9467092B013C010E9481084B01B12CE7
:100A4000A12C4AE0C501B4010E943404E80EF91E4D
:100A5000C501B4010E94B0089B01AC01C301B20101
:100A60000E940F0820E030E040E251E40E94670954
:100A70000E94810890E080E04AE00E943404E80E81
:100A8000F91E4FCF1F920F920FB60F9211242F9382
:100A90003F934F935F936F937F938F939F93AF9306
:100AA000BF93EF93FF9381E491E00E944201FF9195
:100AB000EF91BF91AF919F918F917F916F915F91D6
:100AC0004F913F912F910F900FBE0F901F9018954F
:100AD0001F920F920FB60F9211242F938F939F9313
:100AE000EF93FF93E0915101F09152018081E091E9
:100AF0005701F091580182FD1BC0908180915A01ED
:100B00008F5F8F7320915B01821741F0E0915A0152
:100B1000F0E0EF5BFE4F958F80935A01FF91EF91CC
:100B20009F918F912F910F900FBE0F901F9018954E
:100B30008081F4CF1F920F920FB60F9211242F9342
:100B40003F938F939F93AF93BF9380913D0190917B
:100B50003E01A0913F01B09140013091380123E066
:100B6000230F2D3758F50196A11DB11D2093380193
:100B700080933D0190933E01A0933F01B0934001CB
:100B80008091390190913A01A0913B01B0913C01D3
:100B90000196A11DB11D8093390190933A01A09354
:100BA0003B01B0933C01BF91AF919F918F913F91D9
:100BB0002F910F900FBE0F901F90189526E8230FCE
:100BC0000296A11DB11DD2CFE1E4F1E013821282A1
:100BD00088EE93E0A0E0B0E084839583A683B7839A
:100BE00084E091E09183808385EC90E09587848711
:100BF00084EC90E09787868780EC90E0918B808BE7
:100C000081EC90E0938B828B82EC90E0958B848BCF
:100C100086EC90E0978B868B118E128E138E148E3D
:100C2000AEEDB1E082E015968C9315978BE01696A9
:100C30008C931697E0EBF0E0E4911796EC931797FE
:100C4000ECE9F0E0E4911896EC93189740E85EE345
:100C500060E070E01D964D935D936D937C9350978B
:100C60000895789484B5826084BD84B5816084BD24
:100C700085B5826085BD85B5816085BD80916E003A
:100C8000816080936E00109281008091810082606B
:100C900080938100809181008160809381008091A8
:100CA00080008160809380008091B1008460809397
:100CB000B1008091B00081608093B00080917A0093
:100CC000846080937A0080917A00826080937A00B9
:100CD00080917A00816080937A0080917A008068A8
:100CE00080937A001092C100E0915101F09152017D
:100CF00082E08083E0914D01F0914E011082E091FD
:100D00004F01F09150018FEC808310925901E091D6
:100D10005501F091560186E08083E0915301F091F6
:100D20005401808180618083E0915301F0915401EE
:100D3000808188608083E0915301F091540180812B
:100D400080688083E0915301F091540180818F7D10
:100D5000808362E08091E3010E941D022FB7F89426
:100D600080913D0190913E01A0913F01B0914001E1
:100D70002FBF805D9740A109B1098093E70190934F
:100D8000E801A093E901B093EA0187E38093F001C1
:100D900061E087E00E941D0261E086E00E941D0282
:100DA00061E085E00E941D02C0E0D0E060ED77E0E8
:100DB00080E090E00E94D0020E940203882349F064
:100DC0008091E4018B3028F08D3050F085518230D5
:100DD000C0F1812C912C20ECA22E2FE7B22E1EC048
:100DE0006091DF0170E090E080E00E94B2082DEC9D
:100DF0003CEC4CEC5DE30E9467096B017C01609167
:100E0000DE0170E090E080E00E94B2089B01AC013E
:100E1000C701B6010E9410084B015C010E94020349
:100E2000882341F08091E4018C3009F4ACC0D8F4FF
:100E30008B3091F1C12CD12C80ECE82E8FE7F82E6D
:100E400055C06091DE017091DF0176276727762714
:100E500090E080E00E94B0082DEC3CEC4CEC5DE3AF
:100E60000E946709D9CF8551823020F71091E001A7
:100E7000612F70E0762F662766277F778091E101EA
:100E8000682B90E080E00E94B0082DEC3CEC4CEC2C
:100E90005DE30E94670993C06091E00170E090E01B
:100EA00080E00E94B0086B017C011091E10117FF06
:100EB0000AC0AC019B0160E070E080E89FEB0E94FB
:100EC0000F086B017C011F70612F70E090E080E0E3
:100ED0000E94B2082DEC3CEC4CEC5DE30E946709EB
:100EE000A70196010E9410086B017C0120E030E010
:100EF00048EC51E4C701B6010E947C084FEF50E076
:100F000070E060E01816D4F420E030E048EC51E4E2
:100F1000C701B6010E94620918160CF059C020E002
:100F200030E048E452E4C701B6010E947C0818167C
:100F30000CF44EC050E040E06FEF70E090E080E0D5
:100F40000E94110481E291E00E942704C501B401CE
:100F50000E9478048BE291E00E942704C701B60149
:100F60000E9478046CE271E080E090E00E94D00280
:100F7000209709F41BCF0E942E01882309F416CF75
:100F80000E94000013CF1091E001612F70E090E00B
:100F900080E00E94B0086B017C016091E1016F70FC
:100FA00070E090E080E00E94B2082DEC3CEC4CEC4C
:100FB0005DE30E946709A70196010E9410086B017A
:100FC0007C0117FF93CFF7FAF094F7F8F0948ECFE7
:100FD00020E030E048E452E4C701B6010E94620913
:100FE000181634F650E040E070E060E08FEF90E0DB
:100FF0000E94110481E291E00E942704C501B4011E
:101000000E9478048BE291E00E942704C701B60198
:101010000E94780468EE73E080E090E0A7CF50581B
:10102000BB27AA270E9427080C9428090E941A09A6
:1010300038F00E94210920F039F49F3F19F426F47A
:101040000C9417090EF4E095E7FB0C941109E92FB5
:101050000E94390958F3BA17620773078407950786
:1010600020F079F4A6F50C945B090EF4E0950B2EB4
:10107000BA2FA02D0B01B90190010C01CA01A001EA
:101080001124FF27591B99F0593F50F4503E68F145
:101090001A16F040A22F232F342F4427585FF3CF86
:1010A000469537952795A795F0405395C9F77EF457
:1010B0001F16BA0B620B730B840BBAF09150A1F0A0
:1010C000FF0FBB1F661F771F881FC2F70EC0BA0F26
:1010D000621F731F841F48F4879577956795B795AE
:1010E000F7959E3F08F0B0CF9395880F08F09927A9
:1010F000EE0F9795879508950E94ED0808F481E01A
:1011000008950E94410988F09F5798F0B92F9927B8
:10111000B751B0F0E1F0660F771F881F991F1AF0E2
:10112000BA95C9F714C0B13091F00E945B09B1E0E3
:1011300008950C945B09672F782F8827B85F39F0E2
:10114000B93FCCF3869577956795B395D9F73EF47B
:1011500090958095709561957F4F8F4F9F4F089523
:10116000E89409C097FB3EF4909580957095619541
:101170007F4F8F4F9F4F9923A9F0F92F96E9BB27F7
:101180009395F695879577956795B795F111F8CF73
:10119000FAF4BB0F11F460FF1BC06F5F7F4F8F4FDE
:1011A0009F4F16C0882311F096E911C0772321F0D4
:1011B0009EE8872F762F05C0662371F096E8862F6C
:1011C00070E060E02AF09A95660F771F881FDAF7C3
:1011D000880F9695879597F90895990F0008550FF0
:1011E000AA0BE0E8FEEF16161706E807F907C0F0AD
:1011F00012161306E407F50798F0621B730B840BB5
:10120000950B39F40A2661F0232B242B252B21F48E
:1012100008950A2609F4A140A6958FEF811D811D2E
:10122000089597F99F6780E870E060E008959FEF68
:1012300080EC089500240A9416161706180609066D
:10124000089500240A94121613061406050608953C
:10125000092E0394000C11F4882352F0BB0F40F4C4
:10126000BF2B11F460FF04C06F5F7F4F8F4F9F4F04
:10127000089557FD9058440F551F59F05F3F71F086
:101280004795880F97FB991F61F09F3F79F08795ED
:101290000895121613061406551FF2CF4695F1DF76
:1012A00008C0161617061806991FF1CF8695710506
:1012B000610508940895E894BB2766277727CB013A
:1012C00097F908950E94ED0808F48FEF08950E94A1
:1012D0007A090C9428090E941A0938F00E94210901
:1012E00020F0952311F00C9411090C941709112486
:1012F0000C945C090E94390970F3959FC1F3950F16
:1013000050E0551F629FF001729FBB27F00DB11D89
:10131000639FAA27F00DB11DAA1F649F6627B00D19
:10132000A11D661F829F2227B00DA11D621F739F02
:10133000B00DA11D621F839FA00D611D221F749F10
:101340003327A00D611D231F849F600D211D822F57
:10135000762F6A2F11249F5750409AF0F1F088237E
:101360004AF0EE0FFF1FBB1F661F771F881F9150AB
:101370005040A9F79E3F510580F00C9411090C9440
:101380005C095F3FE4F3983ED4F3869577956795C3
:10139000B795F795E7959F5FC1F7FE2B880F911DD5
:1013A0009695879597F908950E94ED08880B990BFB
:1013B0000895A1E21A2EAA1BBB1BFD010DC0AA1F96
:1013C000BB1FEE1FFF1FA217B307E407F50720F0AE
:1013D000A21BB30BE40BF50B661F771F881F991F29
:1013E0001A9469F760957095809590959B01AC0172
:1013F000BD01CF010895EE0FFF1F0590F491E02D80
:061400000994F894FFCFEF
:10140600000000006401C400F100B10122010001E6
:1014160014016E616E00696E66006F7666000D0AD5
:101426000048756D69646974793A0054656D706534
:081436007261747572653A00E1
:00000001FF
